{
  "address": "0x8A9c99828Af0fE2ffEdbCBf10CC8aeFB8Ae25Ec6",
  "abi": [
    {
      "inputs": [
        {
          "internalType": "address payable",
          "name": "diceGameAddress",
          "type": "address"
        },
        {
          "internalType": "address",
          "name": "initialOwner",
          "type": "address"
        }
      ],
      "stateMutability": "nonpayable",
      "type": "constructor"
    },
    {
      "inputs": [
        {
          "internalType": "uint256",
          "name": "requested",
          "type": "uint256"
        },
        {
          "internalType": "uint256",
          "name": "available",
          "type": "uint256"
        }
      ],
      "name": "InsufficientBalance",
      "type": "error"
    },
    {
      "inputs": [
        {
          "internalType": "uint256",
          "name": "required",
          "type": "uint256"
        },
        {
          "internalType": "uint256",
          "name": "available",
          "type": "uint256"
        }
      ],
      "name": "NotEnoughETH",
      "type": "error"
    },
    {
      "inputs": [
        {
          "internalType": "uint256",
          "name": "roll",
          "type": "uint256"
        }
      ],
      "name": "NotWinningRoll",
      "type": "error"
    },
    {
      "inputs": [
        {
          "internalType": "address",
          "name": "owner",
          "type": "address"
        }
      ],
      "name": "OwnableInvalidOwner",
      "type": "error"
    },
    {
      "inputs": [
        {
          "internalType": "address",
          "name": "account",
          "type": "address"
        }
      ],
      "name": "OwnableUnauthorizedAccount",
      "type": "error"
    },
    {
      "anonymous": false,
      "inputs": [
        {
          "indexed": true,
          "internalType": "address",
          "name": "previousOwner",
          "type": "address"
        },
        {
          "indexed": true,
          "internalType": "address",
          "name": "newOwner",
          "type": "address"
        }
      ],
      "name": "OwnershipTransferred",
      "type": "event"
    },
    {
      "inputs": [],
      "name": "diceGame",
      "outputs": [
        {
          "internalType": "contract DiceGame",
          "name": "",
          "type": "address"
        }
      ],
      "stateMutability": "view",
      "type": "function"
    },
    {
      "inputs": [],
      "name": "owner",
      "outputs": [
        {
          "internalType": "address",
          "name": "",
          "type": "address"
        }
      ],
      "stateMutability": "view",
      "type": "function"
    },
    {
      "inputs": [],
      "name": "renounceOwnership",
      "outputs": [],
      "stateMutability": "nonpayable",
      "type": "function"
    },
    {
      "inputs": [],
      "name": "riggedRoll",
      "outputs": [],
      "stateMutability": "nonpayable",
      "type": "function"
    },
    {
      "inputs": [
        {
          "internalType": "address",
          "name": "newOwner",
          "type": "address"
        }
      ],
      "name": "transferOwnership",
      "outputs": [],
      "stateMutability": "nonpayable",
      "type": "function"
    },
    {
      "inputs": [
        {
          "internalType": "address",
          "name": "_addr",
          "type": "address"
        },
        {
          "internalType": "uint256",
          "name": "_amount",
          "type": "uint256"
        }
      ],
      "name": "withdraw",
      "outputs": [],
      "stateMutability": "nonpayable",
      "type": "function"
    },
    {
      "stateMutability": "payable",
      "type": "receive"
    }
  ],
  "transactionHash": "0xcc6a44fcd74531dd5c7d57923ece343e40099fc85094c8dd36838da36effd2b1",
  "args": [
    "0x6878615Cb96E2D615a5eD7473647dBBDbD29Ce06",
    "0xC3931Eb96941782a44e57FE3621392205D6b7c95"
  ],
  "numDeployments": 1,
  "solcInputHash": "e320465872942cb9140fb8f70d10910d",
  "bytecode": "0x60a060405234801561001057600080fd5b5060405161070638038061070683398101604081905261002f916100e2565b806001600160a01b03811661005e57604051631e4fbdf760e01b81526000600482015260240160405180910390fd5b6100678161007a565b50506001600160a01b031660805261011c565b600080546001600160a01b038381166001600160a01b0319831681178455604051919092169283917f8be0079c531659141344cd1fd0a4f28419497f9722a3daafe3b4186f6b6457e09190a35050565b6001600160a01b03811681146100df57600080fd5b50565b600080604083850312156100f557600080fd5b8251610100816100ca565b6020840151909250610111816100ca565b809150509250929050565b6080516105bb61014b6000396000818160d9015281816101880152818161021601526102a301526105bb6000f3fe6080604052600436106100595760003560e01c80636b5e97f814610065578063715018a61461007c5780638da5cb5b146100915780638e288fd1146100c7578063f2fde38b146100fb578063f3fef3a31461011b57600080fd5b3661006057005b600080fd5b34801561007157600080fd5b5061007a61013b565b005b34801561008857600080fd5b5061007a61031d565b34801561009d57600080fd5b506000546001600160a01b03165b6040516001600160a01b03909116815260200160405180910390f35b3480156100d357600080fd5b506100ab7f000000000000000000000000000000000000000000000000000000000000000081565b34801561010757600080fd5b5061007a6101163660046104d7565b610331565b34801561012757600080fd5b5061007a6101363660046104f9565b61036f565b66071afd498d00004781811015610174576040516317b1a39360e31b815260048101839052602481018290526044015b60405180910390fd5b6000610181600143610523565b40905060007f00000000000000000000000000000000000000000000000000000000000000006001600160a01b031663affed0e06040518163ffffffff1660e01b8152600401602060405180830381865afa1580156101e4573d6000803e3d6000fd5b505050506040513d601f19601f82011682018060405250810190610208919061054a565b6040805160208082018690527f000000000000000000000000000000000000000000000000000000000000000060601b6bffffffffffffffffffffffff19168284015260548083018590528351808403909101815260749092019092528051910120909150600061027a601083610563565b905060058111156102a157604051639cb39a2160e01b81526004810182905260240161016b565b7f00000000000000000000000000000000000000000000000000000000000000006001600160a01b0316637d789dee876040518263ffffffff1660e01b81526004016000604051808303818588803b1580156102fc57600080fd5b505af1158015610310573d6000803e3d6000fd5b5050505050505050505050565b61032561043e565b61032f600061046b565b565b61033961043e565b6001600160a01b03811661036357604051631e4fbdf760e01b81526000600482015260240161016b565b61036c8161046b565b50565b61037761043e565b47808211156103a35760405163cf47918160e01b8152600481018390526024810182905260440161016b565b6000836001600160a01b03168360405160006040518083038185875af1925050503d80600081146103f0576040519150601f19603f3d011682016040523d82523d6000602084013e6103f5565b606091505b50509050806104385760405162461bcd60e51b815260206004820152600f60248201526e15da5d1a191c985dc819985a5b1959608a1b604482015260640161016b565b50505050565b6000546001600160a01b0316331461032f5760405163118cdaa760e01b815233600482015260240161016b565b600080546001600160a01b038381166001600160a01b0319831681178455604051919092169283917f8be0079c531659141344cd1fd0a4f28419497f9722a3daafe3b4186f6b6457e09190a35050565b80356001600160a01b03811681146104d257600080fd5b919050565b6000602082840312156104e957600080fd5b6104f2826104bb565b9392505050565b6000806040838503121561050c57600080fd5b610515836104bb565b946020939093013593505050565b8181038181111561054457634e487b7160e01b600052601160045260246000fd5b92915050565b60006020828403121561055c57600080fd5b5051919050565b60008261058057634e487b7160e01b600052601260045260246000fd5b50069056fea2646970667358221220c318cb2e807f08992c5e3a7ad9a9379ce168beab0fe07363222af85f15cb7e8564736f6c634300081e0033",
  "devdoc": {
    "errors": {
      "OwnableInvalidOwner(address)": [
        {
          "details": "The owner is not a valid owner account. (eg. `address(0)`)"
        }
      ],
      "OwnableUnauthorizedAccount(address)": [
        {
          "details": "The caller account is not authorized to perform an operation."
        }
      ]
    },
    "kind": "dev",
    "methods": {
      "owner()": {
        "details": "Returns the address of the current owner."
      },
      "renounceOwnership()": {
        "details": "Leaves the contract without owner. It will not be possible to call `onlyOwner` functions. Can only be called by the current owner. NOTE: Renouncing ownership will leave the contract without an owner, thereby disabling any functionality that is only available to the owner."
      },
      "transferOwnership(address)": {
        "details": "Transfers ownership of the contract to a new account (`newOwner`). Can only be called by the current owner."
      }
    },
    "version": 1
  },
  "userdoc": {
    "kind": "user",
    "methods": {},
    "version": 1
  },
  "storageLayout": {
    "storage": [
      {
        "astId": 8,
        "contract": "contracts/RiggedRoll.sol:RiggedRoll",
        "label": "_owner",
        "offset": 0,
        "slot": "0",
        "type": "t_address"
      }
    ],
    "types": {
      "t_address": {
        "encoding": "inplace",
        "label": "address",
        "numberOfBytes": "20"
      }
    }
  }
}